:0E0000000C945B000C9488000C9400000C948F
:10000E0000000C9400000C9400000C9400000C9462
:10001E0000000C9400000C9400000C9400000C9452
:10002E0000000C9400000C9400000C9400000C9442
:10003E0000000C9400000C9400000C9400000C9432
:10004E0000000C9400001027E80364000A00010071
:10005E0000100001100001000000000000000D0063
:10006E003738392F3435362A3132332D43303D2B44
:10007E002000256400446976696465204279205A1F
:10008E0065726F21000080C0080004006600100039
:10009E0070026E000100A1027E001000600283005B
:1000AE000200A20294000000F894EE27ECBBF1E0EF
:1000BE00FBBFEBBFE5BF8DE0A2E0BB27ED938A95BA
:1000CE00E9F780E098E0A0E6ED930197E9F7E6E91D
:1000DE00F0E085919591009761F0A591B59105900D
:1000EE001590BF01F00105900D920197E1F7FB010C
:1000FE00F0CFEFE5EDBFE8E0EEBFC0E6D2E00C9446
:10010E0044010A921A92FA926A937A938A939A9374
:10011E00AA93BA93EA93FA93EFB7EA93E0E0E5BBBA
:10012E00A1E0B0E00E944204E1E0F0E04F016F0177
:10013E00E4E0F0E0E815F90524F1EBB3E07FEBBB6A
:10014E00EBB3EC29EBBBE3B3EF70E13011F45401E8
:10015E000FC0E23019F4F401349609C0E43019F4FA
:10016E00F401389604C0E83019F4F4013C965F01AE
:10017E00E3B3EF70E9F7CC0CDD1CF40131964F01BF
:10018E00D7CFEBB3EF60EBBBF50131975F010E9468
:10019E00F303EA32A0E0FA0731F481D0EAE2E09309
:1001AE00A102AAE25BC0EB32A0E0FA0731F477D0ED
:1001BE00EBE2E093A102ABE251C0ED32A0E0FA0710
:1001CE0031F46DD0EDE2E093A102ADE247C0EF3223
:1001DE00A0E0FA0731F463D0EFE2E093A102AFE2C0
:1001EE003DC0E334A0E0FA0729F40E94FA030E940E
:1001FE00010435C0ED33A0E0FA07F1F40E94FA03D2
:10020E004ED0E1E8F2E0FA93EA93E0E8F0E0FA93F8
:10021E00EA93F3010E9454040E94940484E00E9425
:10022E00A6032896230166247724A1E8B2E0D4D051
:10023E00E0E2E093A10213C0F201AAE0B0E00E9456
:10024E0061040F010E94F303D001AE0FBF1FD097C0
:10025E002D01A0E7B2E0AA0DBB1DAC919DD0E99196
:10026E00EFBFF991E991B991A991999189917991FC
:10027E006991F990199009901895EFEFE7BBE0E0BE
:10028E00E4BBEFEFEABBEBBBE0E0E1BBA0E1B5D036
:10029E00E0E4EBBF7894E3E0E5BFFFCFFFCFE09162
:1002AE00A102F0E0EB32A0E0FA0719F4640C751C21
:1002BE0031C0ED32A0E0FA0719F4641875082AC0AF
:1002CE00EA32A0E0FA0731F4F201D3010E94610490
:1002DE003F0120C0EF32A0E0FA07B9F4042C052844
:1002EE0071F40E94FA03A0E6B2E076D0ACEDB5E070
:1002FE000E9442040E94FA030E9401040DC0F20102
:10030E00D3010E9479043F0105C0E032A0E0FA0754
:10031E0019F43201442455240895AA93E8B3EF70DA
:10032E00AE2FE881E07FEA2BE8BB82E08A95F1F7F9
:10033E00DE9A82E08A95F1F7DE9882E08A95F1F7EF
:10034E0088C0AA93A881E9DFE881E295E883A881B5
:10035E00E4DF81E18A95F1F77CC0AA93E881F0E0B1
:10036E00EE55FD4FE081A981AE0FEBDFE981E09301
:10037E00A602E881E093A70222960895A2E00E94C9
:10038E000904ACE0DEDFA1E00E940904E0E0E093A6
:10039E00A702E093A6020895AA93A881AA3031F08D
:1003AE00E091A802A091A602AE1760F0E0E0EA93F9
:1003BE00A091A702AF5FA093A702CFDFA881AA30BA
:1003CE0009F447C0E091A602EF5FE093A602DC9A23
:1003DE00A881B7DFDC983DC0BA93AA931A93A9817E
:1003EE00BA81ED91A983BA831E2FE03019F0A12FA7
:1003FE00D3DFF5CF188123960895AA93E7B3E06F64
:10040E00E7BBD69AD49AD59ADE98DC98DD98E88127
:10041E00E093A802E058E093A402E881E054E09350
:10042E00A502A4E1B0E00E9442040E940F040E94C3
:10043E000F040E940F04A0E270DF81E28A95F1F7AB
:10044E00A8E27FDFA4E07DDFA5E87BDFA6E079DF11
:10045E0095DF21960895BA93AA931A930A93AA81C7
:10046E00BB8112960E948C04309759F1AA81BB81F0
:10047E0014960E948C048F01309761F00230E0E0F8
:10048E001E0798F0F80131978F01AA81BB8114964F
:10049E00ED93FC93AA81BB811296ED91FD9131965D
:1004AE00FE93EE933197AC81A083AA81BB810E940B
:1004BE008C04FF232AF0ED91FD913196FE93EE937D
:1004CE0006C0AA81BB81EFEFFFEFED93FC9319817C
:1004DE00088125960895BA93AA9326970E949904A7
:1004EE0010E0AC85BD85E0E0F0E0ED93FC93EA8989
:1004FE00FB893196EA8BFB8B3197E4912E2FE030FE
:10050E0009F415C1E12FE03039F4253211F411E070
:10051E0002C00E9416040AC1E130A9F4253219F472
:10052E000E94160402C112E040E000E02D3211F4E8
:10053E0001E0FCC02B3211F44BE2F8C0203211F472
:10054E0040E2F4C002C0E23039F450E013E0203350
:10055E0011F40068EBC003C0E33009F0E7C02033AC
:10056E0010F02A3308F007C0AAE05A9F502DE22F50
:10057E00E0535E0FDBC0E22FE33649F40E941D0408
:10058E00E889F989A481AA930E942304CEC0E33797
:10059E0041F40E941D040E9429040E94DA031E2FBA
:1005AE000AC0E03761F40E941D040E9429040E94D3
:1005BE00E6031E2F086002600F7730E034C0E43689
:1005CE0011F0E93611F4046002C0E53731F4E4E5C8
:1005DE00F0E0EE83FF8315E00CC0E83511F40860FF
:1005EE0003C0E83709F0A1C0EEE5F0E0EE83FF832B
:1005FE0014E002FF14C00E941D040E943304AB8558
:10060E00AA233AF4EA85FB850E945004EA87FB8709
:10061E004DE2403011F01F5F01C00B7F04C00E94FD
:10062E001D040E94330400FD11C0151778F407FF56
:10063E0008C002FF04C00B7F242F115001C020E31D
:10064E0001C020E20E9416045150EFCF312F01FF5E
:10065E0017C03030A1F003FF06C0EE81FF81259157
:10066E00EE83FF8305C0AE81BF812D91AE83BF8324
:10067E000E941604503009F051503150EACF4BC051
:10068E0020E3EE81FF810E949004E887F987EE81D6
:10069E00FF813296EE83FF83E885F985AA85BB85B7
:1006AE00AE17BF0750F02F5FA885B985EA85FB8589
:1006BE00EA1BFB0BEA87FB87EFCF2A3328F003FFF9
:1006CE0002C0295F01C0295D04FD1AC0213320F448
:1006DE00A885B985119709F409C0531710F000FFCA
:1006EE0001C013C020E207FF0BC020E3006102FF30
:1006FE0007C00B7F4A930E942304503009F05150DB
:10070E000E941604503009F051503150A885B98519
:10071E00129708F0B5CF00FF08C0503031F051509D
:10072E00E0E2EA930E942304F8CF10E0E0CEAC851D
:10073E00BD850E948C040E94A00464960895FF92C9
:10074E00F82E26970E949B040E943B04309719F4C2
:10075E00EFEFFFEF23C0DE0116960E944C048D01D1
:10076E000E943B04EE83FF83E0E0E887E987DE0129
:10077E001A960E944C040E948C04FA93EA931A93E0
:10078E000A93E2E3F2E0FA93EA93DE011A96A3DE0D
:10079E009F01AE81BF81E0E0EC93F9010E94A204BB
:1007AE002A96FF900895BA93AA93A991B991EE272C
:1007BE00FF276D91662311F03196FBCF0895BA9302
:1007CE00AA93AA27BB27E991F9910590002011F071
:1007DE001196FBCFFD010895A0E7B2E0AA0DBB1D57
:1007EE00EC91F0E008950E94C501E0E0EA93A0E0EC
:1007FE000C94B4014424552466247724E0E2E0935B
:10080E00A10208950E94A801A3E0B0E00C94420456
:10081E00A0E30E94940181E28A95F1F708952A934C
:10082E00AD85BE85EF85F88909950895E889F98922
:10083E003497E88BF98B0895AD85BE85EF85F889E1
:10084E0009950895A889B98914960E948C04EE839F
:10085E00FF83AE81BF810895A889B98914960E943D
:10086E008C04EA87FB870895DE011C960E944C04D7
:10087E000E948C040895109639F0A8958AEF90E0A6
:10088E000197F1F71197C9F708950024AF0DB01D28
:10089E000895F195E195F04008956F2F660F660B60
:1008AE00762F0895FA9FF02DEB9FF00DEA9FE02D25
:1008BE00F10D08951CD0F6DF0EF4EBDF0895002441
:1008CE00112490E1AA0FBB1F001C111C0E1A1F0A47
:1008DE0018F40E0E1F1E01C0A1609A9599F7FD0126
:1008EE00D001089504D0EBDF0EF4D3DF0895E89421
:1008FE00F7FF02C0CEDF6894B7FF06C0A095B09593
:10090E00119600F8039400FA0895ED91FC91119759
:10091E0008950590F491E02D08957A936A93FA93D1
:10092E00EA9308955A934A933A932A931A930A9301
:10093E0008955D814C813B812A811981088108953A
:00000001FF
